:0200000066C0D8
:10000200FECFFDCFFCCFFBCFFACFF9CFF8CFF7CFA2
:10001200F6CFF5CF8AC0F3CFA8C0F1CFF0CFEFCFA4
:10002200EECFEDCF1027E80364000A0001000010B4
:10003200000110000100000041540D0A0041542B40
:1000420043574D4F44453D310D0A0041542B435710
:100052004A41503D22414E2054414D222C223237FA
:10006200313031393937220D0A0041542B4349507E
:1000720053544152543D22544350222C223139329E
:100082002E3136382E312E37222C383838380D0A98
:100092000041542B43495053454E443D330D0A0011
:1000A200010002003800050060013A000E006501FF
:1000B2003F001F0073014D00270092016C000F00EA
:1000C200B90193000400C80149000000F894EE272A
:1000D200ECBBF1E0FBBFEBBFE5BFF8E1F1BDE1BD79
:1000E2008DE0A2E0BB27ED938A95E9F780E094E0EA
:1000F200A0E6ED930197E9F7E2EAF0E085919591A8
:10010200009761F0A591B59105901590BF01F0019E
:1001120005900D920197E1F7FB01F0CFEFE5EDBFFE
:10012200E4E0EEBFC0E6D1E04EC0ABD0CBD01BB115
:100132000CB1E12FEC71B9F4E52D5394A7D0E4533F
:10014200FE4F00830A3709F4A8980C3609F4A89ADE
:10015200E0E1E51509F455247394E0E1E71519F49B
:100162007724689420F8B1D00FC08BD0882061F03A
:100172008A94E92D93948AD0E452FE4FE081ECB93F
:10018200E0E1E91509F49924E991EFBFF991E991C8
:100192001895E0E1E815E9F3F894882011F45D99E7
:1001A2000DC0E62D639472D0E452FE4FA881A08365
:1001B200E0E1E61509F46624839402C0E881ECB913
:1001C200789421960895E0E0E8BBE7BBE5BBE1E166
:1001D200E4BBE0E0E2BBE1BBE3BFE2BFEFBDEEBDEB
:1001E200EDBDECBDE7BDE6BDEBBDEABDE9BDE8BDD9
:1001F200E2BDE5BDE4BDE3BDE5BFE9BFEBB9E8EDB6
:10020200EAB9E6E8E0BDE0E0E0BDE3E3E9B9E0E851
:10021200E8B9E0E0E0BFE6B9EDB9E6BF7894E0E620
:10022200F1E036D038D0E5E6F1E03AD03BD0E3E772
:10023200F1E036D0E0EDF7E02BD038D0E2E9F1E0A2
:100242002FD030D0E9EBF1E02BD0E4EFF1E020D079
:100252002DD0E8ECF1E01CD01ED0F0CFFFCF1A93E6
:10026200A981BA81ED91A983BA831E2FE03019F0DA
:100272001A938FDFF5CFEAE0EA938BDF188123969A
:100282000895EA93FA93EFB7EA930895F0E0089598
:10029200FA93EA930895E3DFE8EEF3E0F9DF06C0AC
:1002A200F7DFDDCFE4E6F0E0F3DF00C0E991F9919A
:1002B200309639F080ED97E00197F1F7A8953197E4
:1002C200C9F708951A930A93089509911991089507
:00000001FF
