:0E0000006DC0FECFFDCFFCCFFBCFFACFF9CF06
:10000E00F8CFF7CFF6CFF5CF91C0F3CFAFC0F1CF8A
:10001E00F0CFEFCFEECFEDCF1027E80364000A004C
:10002E00010000100001100001000000000000009F
:10003E0041540D0A0041542B43574D4F44453D3119
:10004E000D0A0041542B43574A41503D227474749B
:10005E00222C223132333435363738220D0A004104
:10006E00542B43495053544152543D225443502231
:10007E002C223139322E3136382E34332E32322272
:10008E002C383838380D0A0041542B43495053450B
:10009E004E443D31310D0A006E2B25643B25640A1A
:1000AE000D00010002003800050060013E000E0048
:1000BE00650143001C007301510029008F016D0082
:1000CE001000B8019600040004003A000000F894F5
:1000DE00EE27ECBBF1E0FBBFEBBFE5BFF8E1F1BDF6
:1000EE00E1BD8DE0A2E0BB27ED938A95E9F780E0B4
:1000FE0094E0A0E6ED930197E9F7E0EBF0E085914F
:10010E009591009761F0A591B59105901590BF015D
:10011E00F00105900D920197E1F7FB01F0CFEFE5AD
:10012E00EDBFE4E0EEBFC0E6D1E0B0C06FD2E3D2E7
:10013E001BB10CB1E12FEC71B9F4E62D63946BD2C7
:10014E00E353FE4F00830A3709F4A8980C3609F4DE
:10015E00A89AE0E1E61509F466248394E0E1E81537
:10016E0019F48824689420F8D0D20FC04FD2DD2025
:10017E0061F0DA94EA2DA3944ED2E352FE4FE08161
:10018E00ECB9E0E1EA1509F4AA24E991EFBFF9917F
:10019E00E9911895E0E1ED15E9F3F894DD2011F4FD
:1001AE005D990DC0EB2DB39436D2E352FE4FA8816C
:1001BE00A083E0E1EB1509F4BB24D39402C0E881DF
:1001CE00ECB978942196089594D2A29AAA9AE2E371
:1001DE00F0E023D2AA98E9E1F0E01FD2AA9A8BE1CF
:1001EE008A95F1F7A29880EA8A95F1F79A9B02C058
:1001FE00E0E049C09A9BFECF80EA8A95F1F79A9982
:10020E0002C0E0E040C09A99FECF00E0053010F544
:10021E0010E01830E8F49A9BFECF80E58A95F1F74E
:10022E009A9B14C0E02FF7D1E853FE4FBF012081F7
:10023E00E12FF1D1A7E0B0E053D2EA1BFB0BA1E016
:10024E003AD2E22BDB01EC939A99FECF1F5FE1CFFE
:10025E000F5FDCCFE091C901A091C801AE0FE09114
:10026E00CA01AE0FE091CB01EA0F3E2FA29AAA98D7
:10027E00EAE0F0E0D2D1E091CC01E31711F0E0E03A
:10028E0002C0E091CA013CD224960895E0E0E8BB9A
:10029E00E7BBE5BBE1E1E4BBE0E0E2BBE1BBE3BF12
:1002AE00E2BFEFBDEEBDEDBDECBDE7BDE6BDEBBD06
:1002BE00EABDE9BDE8BDE2BDE5BDE4BDE3BDE5BF18
:1002CE00E9BFEBB9E8EDEAB9E6E8E0BDE0E0E0BD94
:1002DE00E3E3E9B9E0E8E8B9E0E0E0BFE6B9EDB99B
:1002EE00E6BF7894E0E6F1E09BD1E5E6F1E098D147
:1002FE00E3E7F1E0FA93EA9322D0E8EEF3E08DD152
:10030E00E8ECF0E08AD1EFE8F1E08AD1E8EBF1E039
:10031E008DD115D0E8ECF0E080D156DFE6EAF0E0C2
:10032E0085D1E091C80185D1E091CA0182D188E0E2
:10033E0039D12A96E4EFF1E070D1E2CFFFCF1A93D4
:10034E00A981BA81ED91A983BA831E2FE03019F0ED
:10035E001A9320DFF5CFEAE0EA931CDF18810AC07A
:10036E00EA81EA9317DFA881B981ED91FD9131966B
:10037E00FE93EE93239608952697B9D110E0AC859F
:10038E00BD85E0E0F0E0ED93FC93EA89FB893196C0
:10039E00EA8BFB8B3197E4912E2FE03009F4FCC0F1
:1003AE00E12FE03031F4253211F411E001C046D1D5
:1003BE00F2C0E130A1F4253211F440D1EBC012E0CD
:1003CE0040E000E02D3211F401E0E5C02B3211F4D3
:1003DE004BE2E1C0203211F440E2DDC002C0E23057
:1003EE0039F450E013E0203311F40068D4C003C098
:1003FE00E33009F0D0C0203310F02A3308F007C0E4
:10040E00AAE05A9F502DE22FE0535E0FC4C0E22F98
:10041E00E33639F41BD11DD119D1A481AA931DD174
:10042E00B9C0E33729F420D121D1DBD01E2F07C06C
:10043E00E03749F419D11AD1DED01E2F08600260C0
:10044E000F7730E02DC0E43611F0E93611F4046078
:10045E0002C0E53729F4E6E2F0E00FD115E00BC05B
:10046E00E83511F4086003C0E83709F093C0E0E303
:10047E00F0E003D114E002FF11C0F6D001D1AB853C
:10048E00AA2332F4EA85FB8512D1EA87FB874DE277
:10049E00403011F01F5F01C00B7F02C0E5D0F0D0DD
:1004AE0000FD10C0151770F407FF08C002FF04C04E
:1004BE000B7F242F115001C020E301C020E2BED0DB
:1004CE005150F0CF312F01FF15C0303091F003FFA6
:1004DE0005C0EE81FF812591D0D005C0AE81BF81D0
:1004EE002D91AE83BF83AAD0503009F051503150B8
:1004FE00ECCF47C020E3EE81FF81E9D0E887F98792
:10050E00EE81FF813296B9D0E885F985AA85BB8543
:10051E00AE17BF0750F02F5FA885B985EA85FB851A
:10052E00EA1BFB0BEA87FB87EFCF2A3328F003FF8A
:10053E0002C0295F01C0295D04FD19C0213320F4DA
:10054E00A885B985119709F409C0531710F000FF5B
:10055E0001C011C020E207FF0AC020E3006102FFC4
:10056E0006C00B7F4A9379D0503009F0515066D0B7
:10057E00503009F051503150A885B985129708F0C6
:10058E00B9CF00FF07C0503029F05150E0E2EA9396
:10059E0064D0F9CF10E0F9CEAC85BD8594D0AED045
:1005AE0064960895FF92F82E2697A5D0DE01149634
:1005BE007AD08D01E0E0EC83ED83EE83EF83DE01F4
:1005CE00189671D080D032D01A930A93E7EBF1E0EF
:1005DE002DD0FE0138962AD0CFDE94D02896FF90EB
:1005EE000895A991B991EE27FF276D91662311F019
:1005FE003196FBCF0895AA27BB27E991F991059073
:10060E00002011F01196FBCFFD010895EA93FA93A5
:10061E00EFB7EA930895F0E00895FA93EA9337C09E
:10062E00FA93EA938CDEE4E6F0E0F7CFFA93EA93DE
:10063E000895FF27662777274ED008952A93ED85D4
:10064E00FE85F4DFE989FA8909950895E889F98923
:10065E0008953497E88BF98B0895ED85FE85E6DFD6
:10066E00E989FA8909950895F1DFF3CFA889B98947
:10067E00149629D0EE83FF83D9CFEE83FF8308959E
:10068E00A889B98914961FD0EA87FB870895E99146
:10069E00F991309639F080ED97E00197F1F7A89532
:1006AE003197C9F708950024AF0DB01D0895F19547
:1006BE00E195F0400895EE230E2EEA2F19F0EE0F7D
:1006CE000A94E9F70895ED91FC911197089505901C
:1006DE00F491E02D08957A936A93FA93EA9308952C
:1006EE001B2EBF2FF12D1A2EAE2FE12D08955A93EA
:1006FE004A933A932A931A930A9308955D814C81F3
:10070E003B812A81198108810895099119910895D3
:00000001FF
